:020000040800F2
:10000000F8F90120A5010008392F0008E9240008AB
:10001000352F0008A5070008CB620008000000008B
:10002000000000000000000000000000F93F000890
:10003000A907000800000000E33100080D40000897
:10004000BF010008BF010008BF010008BF01000890
:10005000BF010008BF010008BF010008BF01000880
:10006000BF010008BF010008BF010008BF01000870
:10007000BF010008BF010008BF010008BF01000860
:10008000BF010008BF010008BF010008BF01000850
:10009000BF010008BF010008BF010008BF01000840
:1000A000BF010008BF010008BF010008BF01000830
:1000B000BF010008BF010008BF010008BF01000820
:1000C000BF010008BF010008BF010008BF01000810
:1000D000BF010008E5400008BF010008BF0100089B
:1000E000BF010008BF010008BF010008BF010008F0
:1000F000BF010008BF010008BF010008BF010008E0
:10010000BF010008BF010008BF010008BF010008CF
:10011000BF010008BF010008BF010008BF010008BF
:10012000BF010008BF010008BF010008BF010008AF
:10013000BF010008BF010008BF010008BF0100089F
:10014000BF010008BF010008BF0100083D2F0008E3
:10015000BF010008BF010008BF010008BF0100087F
:10016000BF010008BF010008BF010008BF0100086F
:10017000BF010008BF010008BF0100080000000027
:10018000BF010008BF010008DFF80CD000F05EFAE4
:100190000048004789860008F8F9012080F30888A4
:1001A000704700000648804706480047FEE7FEE724
:1001B000FEE7FEE7FEE7FEE7FEE7FEE7FEE7FEE717
:1001C000C9400008890100082DE9F05F05460020BC
:1001D00092469B4688460646814640241BE02846B8
:1001E00041464746224600F069F853465A46C01A2F
:1001F000914110D311461846224600F050F82D1AAE
:1002000067EB01084F4622460120002100F047F825
:1002100017EB00094E41201EA4F10104DFDC484623
:1002200031462A464346BDE8F09F40EA01039B075A
:1002300003D009E008C9121F08C0042AFAD203E05B
:1002400011F8013B00F8013B521EF9D27047D2B2BF
:1002500001E000F8012B491EFBD270470022F6E7AF
:1002600010B513460A4604461946FFF7F0FF20462C
:1002700010BD30B50B46014600202022012409E0C4
:1002800021FA02F59D4205D303FA02F5491B04FA4F
:1002900002F52844151EA2F10102F1DC30BD202A2E
:1002A00004DB203A00FA02F1002070479140C2F1CD
:1002B000200320FA03F3194390407047202A04DBFF
:1002C000203A21FA02F00021704721FA02F3D040CF
:1002D000C2F1200291400843194670472DE9FE4FB4
:1002E000804681EA0300C00F0C46009021F00041D7
:1002F00023F00045B8EB0200A94105D24046214653
:1003000090461C460B46024623F00040104347D05F
:10031000270DC7F30A00C3F30A510290401A019057
:1003200040286BDAC3F3130040F4801B0098924618
:1003300020B10023D2EB030A63EB0B0B0198594663
:10034000C0F140025046FFF7AAFF06460D46504650
:100350005946019A00F08CF910EB08006141002425
:1003600087EA115284EAE7731A4340D0009A62B3D5
:10037000019A012A4FEA075215DC001B61EB0201CA
:100380004FF0004202EA0752CDE90042001C41F55D
:10039000801132462B4600F08CF903B0BDE8F08F97
:1003A00040462146F9E7001B61EB0201001C41F5C4
:1003B000801300185B412018A2F5001747EB0301DA
:1003C00040EAD570B6196D4111E06D084FEA360666
:1003D00045EAC0754FEA0752001B61EB0201001CA1
:1003E00041F5801149084FEA300000195141324669
:1003F0002B4603B0BDE8F04F00F04CB90098012245
:1004000040000023D0EB020263EBE073009821462A
:100410004FEAE074B8EB000061EB0401E9E783F018
:1004200000435BE781F0004158E72DE9FE4F81EA88
:10043000030404F0004421F0004100944FF0000B4D
:1004400023F0004350EA01045ED052EA03045BD07B
:10045000C3F30A54C1F30A552C44A4F2F3340194B3
:10046000A0FB0254C1F3130141F48011C3F3130341
:1004700043F4801301FB024400FB034E840A970AF5
:1004800044EA815447EA8357A4FB076802958D0A22
:1004900005FB07854FEA932C04FB0C542705029DAE
:1004A0004FEA065847EA1637B5EB08056EEB070C1E
:1004B000870E920E47EA811742EA8312A7FB0201D8
:1004C000B6EB0B0164EB00042B0D43EA0C335E1812
:1004D00044EB1C50DA465146E7FB0201C5F3130416
:1004E0004FEA0B3343EA14534FEA0432019C43EAC8
:1004F0000603A4F10C040294009CCDE900B400F0C2
:10050000D8F803B0BDE8F08F00200146F9E72DE9E7
:10051000F04D81EA030404F0004B21F0004514463D
:100520004FF0000A23F0004150EA050220D054EABF
:1005300001021DD0C5F30A570246C5F31303C1F3E8
:100540001300C1F30A5640F4801543F48013A7EB5F
:100550000608101BD64608F2FD3873EB050002D3DF
:1005600008F1010801E092185B41B8F1000F03DACD
:1005700000200146BDE8F08D00204FF480110646B2
:1005800084460EE0171B73EB050705D3121B63EBC4
:10059000050306434CEA010C49084FEA3000921863
:1005A0005B4150EA0107EDD152EA030012D082EA22
:1005B000040083EA0501084305D0101BAB4106D2B5
:1005C0000122002306E000224FF0004302E06FF01A
:1005D000010253101AEB06004CEB085110EB0A0015
:1005E00041EB0B01BDE8F04D00F054B8C1F30A52E5
:1005F000C1F3130140F2FF3341F480119A4202DA51
:1006000000200146704740F233439A42A2F233423F
:1006100002DC5242FFF752BEFFF741BE30B5041E66
:1006200071F1000404DB4FF00044404264EB01012F
:10063000141E73F1000405DB1C464FF000435242C8
:1006400063EB0403994208BF904230BD064C074D4E
:1006500006E0E06840F0010394E807009847103492
:10066000AC42F6D3FFF794FDDC8E0008FC8E000848
:10067000202A06DBCB17203A41FA02F043EAE07366
:1006800006E041FA02F3D040C2F120029140084353
:100690001946704710B5141E73F1000408DA401CA7
:1006A00041F1000192185B411A4301D120F0010091
:1006B00010BD2DE9F04D92469B4611B1B1FA81F281
:1006C00002E0B0FA80F220329046FFF7E8FD0446DF
:1006D0000F4640EA0A0041EA0B0153465A460843D6
:1006E00013D0114653EA010019D0C8F14002504618
:1006F000FFF7E4FD05460E46504659464246FFF7D1
:10070000CEFD084305D0012004E020463946BDE86F
:10071000F08D0020054346EAE0762C4337430A98E3
:100720006305E40AA0EB08000022FD0A44EA4754EE
:100730000A3002D500200146E9E701051019694198
:10074000DDE9084500196941BDE8F04DA2E770B543
:100750008C1810F8015B15F0070301D110F8013B6C
:100760002A1106D110F8012B03E010F8016B01F8F3
:10077000016B5B1EF9D12B0705D40023521E0DD44B
:1007800001F8013BFAE710F8013BCB1A921C03E099
:1007900013F8015B01F8015B521EF9D5A142D8D3D1
:1007A000002070BD00BFFEE77047704730B50446BB
:1007B0000D4600222946204600F002F830BD000018
:1007C000F0B50346012500241148407A01281CDABF
:1007D00000200F4E767A0E4FB8553846467A001DE7
:1007E00040F82630001F467A083082553E46707A1F
:1007F000461C7E72044604F1300008703A204870AE
:100800002F2088700020C87000252846F0BD000009
:10081000E8E5012010B5002201B909E0012901D164
:100820000A0205E0022901D10A0201E04FF44072F8
:100830000E4B1B6823F440730C4C236023461B684B
:100840001343236023461B6823F0F80323602346E9
:100850001B68022444EAC0042343044C236023465B
:100860001B6843F48033236010BD0000103C02403D
:100870001C48006800F40070B0B11A48006820F409
:1008800000701849086000BF0846006840F4006026
:1008900008600846006820F40060086000BF084651
:1008A000006840F4007008600E48006800F4806042
:1008B000B0B10C48006820F480600A49086000BFAD
:1008C0000846006840F4805008600846006820F43C
:1008D0008050086000BF0846006840F480600860EF
:1008E00070470000003C024030B587B0054600F07C
:1008F00017F80A4800F034F90446002001900394E8
:10090000032004900220059006A901A800F0A0F998
:1009100010B1012007B030BD0020FBE70000010846
:1009200010B500F037FAF3200149086010BD00004F
:100930000C3C02402DE9F04104460E4617460025C6
:1009400000BF15E056F825C062460023214602206C
:1009500000F0D4F948B956F825102068884202D032
:100960000220BDE8F081241D01E00320F9E76D1CA1
:10097000BD4202D202488442E4D90020F1E70000DF
:10098000FBFF07080A4A126822F44072084B1A60FB
:100990001A46126842F004021A601A4612684FF4AE
:1009A000803343EA00231A43014B1A60704700006A
:1009B000103C0240074A126822F44072054B1A604C
:1009C0001A4612681A601A46126842F001021A604A
:1009D00001707047103C024010B50D49096821F4C0
:1009E00040710B4C21602146096841F4407121603F
:1009F0002146096841F001012160026000BF00BF8B
:100A000000BFBFF36F8F00BF00BF00BF436010BDCA
:100A1000103C0240084A126822F44072064B1A60E9
:100A20001A46126842F480721A601A46126842F03E
:100A300001021A6001807047103C0240084A1268A7
:100A400022F44072064B1A601A46126842F4007291
:100A50001A601A46126842F001021A60016070477B
:100A6000103C02402348006800F0100040B12248CA
:100A7000C06940F010002049C86110201D4908607D
:100A80001C48006800F0200040B11B48C06940F0DD
:100A900008001949C86120201649086015480068F7
:100AA00000F0400040B11448C06940F00400124911
:100AB000C86140200F4908600E48006800F08000BF
:100AC00040B10D48C06940F002000B49C861802068
:100AD000084908600748006800F0020040B1064875
:100AE000C06940F020000449C86102200149086043
:100AF000704700000C3C024070D8012070B50446DD
:100B0000002500201449C86100F064FA054609E098
:100B1000601C38B124B100F05DFA401BA04201D93D
:100B2000032070BD0D48006800F480300028EFD12C
:100B30000A48006800F0010010B101200749086070
:100B40000648006800F0F20018B1FFF78BFF0120A3
:100B5000E7E70020E5E7000070D801200C3C0240E8
:100B6000014600201C4A914203D2B1F1006F00D32C
:100B700030E01A4A914204D2174A914201D301202F
:100B800028E0174A914204D2144A914201D302202C
:100B900020E0144A914204D2114A914201D3032029
:100BA00018E0114A914204D20E4A914201D3042026
:100BB00010E00E4A914204D20B4A914201D3052023
:100BC00008E00B4A914204D2084A914201D3062020
:100BD00000E0072070470000004000080080000887
:100BE00000C000080000010800000208000004081E
:100BF0000000060870B50A480468001D0568001D5D
:100C00000668344454B108220649204601F06EFCBF
:100C1000042204491031284601F068FC70BD000030
:100C2000107AFF1FAA00002070B5044600F0D2F928
:100C300006462546681C10B104480078054400BFEC
:100C400000F0C8F9801BA842FAD370BD6C000020E8
:100C50002DE9F04104460E460127002500BF254836
:100C6000007E012802D10220BDE8F0810120214947
:100C7000087600BF4CF25030FFF740FF0746002FC8
:100C800031D1401E3060206801280FD1207C61687E
:100C9000FFF778FE4CF25030FFF730FF074616485A
:100CA000006820F00400144908601AE0A56812E00A
:100CB000217C2846FFF7AEFD4CF25030FFF71EFFB7
:100CC00007460D48006820F0FA000B4908600FB194
:100CD000356005E06D1CD4E902100844A842E7D84D
:100CE00000BFFFF7C5FD00BF00200249087600BF26
:100CF0003846B9E770D80120103C02402DE9F04198
:100D000006460F4614461D464FF0010800BF1F4817
:100D1000007E012802D10220BDE8F08101201B499C
:100D2000087600BF4CF25030FFF7E8FE8046B8F17D
:100D3000000F23D126B9E1B23846FFF73BFE12E09F
:100D4000012E04D1A1B23846FFF764FE0BE0022E5B
:100D500004D121463846FFF771FE04E022462B46B7
:100D60003846FFF739FE4CF25030FFF7C7FE804699
:100D70000748006820F001000549086000BF002016
:100D80000249087600BF4046C6E7000070D801203F
:100D9000103C024000200949096801F0004159B1A6
:100DA0000749064A0C3A116006491160034909686F
:100DB00001F0004101B1012070470000103C0240E9
:100DC00023016745AB89EFCDF8B502460B460025F8
:100DD000002400200021DCE0012606FA01F51E684F
:100DE00006EA0504AC4273D15E68012E08D05E6845
:100DF000022E05D05E68112E02D05E68122E13D12D
:100E000090684F000326BE40B0434F00DE68BE40EE
:100E100030439060506801268E40B0431E79C6F37F
:100E200000168E4030435060D0684F000326BE400D
:100E3000B0434F009E68BE403043D0605E68022ED3
:100E400002D05E68122E13D1CF0802F1200656F8A8
:100E500027004E07F70E0F26BE40B0434F07FF0E88
:100E60001E69BE403043CF0802F1200646F8270035
:100E700010684F000326BE40B0431E7906F00306FB
:100E80004F00BE40304310605E6806F08056B6F1F9
:100E9000805F7DD100BF00260096404E366846F444
:100EA00080463E4F3E603E46366806F480460096D9
:100EB00000BF00BF3A4E8F0856F827008E07370F45
:100EC0000F26BE40B043374EB24202D1002624E086
:100ED0005EE0354EB24201D101261EE0334EB242F1
:100EE00001D1022619E0324EB24201D1032614E0AC
:100EF000304EB24201D104260FE02F4EB24201D152
:100F000005260AE02D4EB24201D1062605E02C4E00
:100F1000B24201D1072600E008268F073F0FBE40EE
:100F200030431F4E8F0846F82700264E3068A043F6
:100F30005E6806F48036B6F5803F00D12043214E2E
:100F40003060361D3068A0435E6806F40036B6F5A2
:100F5000003F00D120431B4E361D3060361D3068E7
:100F6000A0435E6806F48016B6F5801F00D12043CA
:100F7000144E08363060361D3068A0435E6806F4B3
:100F80000016B6F5001F00D120430E4E0C3630601F
:100F9000491C1029FFF420AFF8BD0000443802407E
:100FA00008380140000002400004024000080240EE
:100FB000000C0240001002400014024000180240E1
:100FC000001C0240003C01400AB1816101E00B04B9
:100FD000836170470148006870470000640000208A
:100FE00003480068034909780844014908607047CC
:100FF000640000206C00002010B50D48006840F42B
:1010000000700B4908600846006840F48060086082
:101010000846006840F480700860032000F0A2F8E1
:10102000002000F007F800F02BF8002010BD0000B1
:10103000003C024070B504460E4800784FF47A71C7
:10104000B1FBF0F00C490968B1FBF0F5284601F05E
:1010500031FA08B1012070BD102C07D200222146C0
:10106000501E00F041F80548046001E00120F2E75D
:101070000020F0E76C0000207000002068000020D5
:1010800008B500BF002000900E48006840F4804082
:101090000C4908600846006800F48040009000BFDA
:1010A00000BF00BF00200090081F006840F0805083
:1010B000091F08600846006800F08050009000BFDB
:1010C00000BF08BD4438024001460846002809DB3D
:1010D00000F01F0301229A4043099B0003F1E02323
:1010E000C3F8002100BF70472DE9F05F80460D4630
:1010F0001646002705F0FCF8074639462A463346CF
:1011000001F00700C0F1070ABAF1040F02D94FF04D
:10111000040A01E0C0F1070AD14600F1040ABAF15D
:10112000070F02D24FF0000A01E0A0F1030AD446F3
:101130004FF0010A0AFA09FAAAF1010A0AEA020AB8
:101140000AFA0CFA4FF0010B0BFA0CFBABF1010B96
:101150000BEA030B4AEA0B042146404605F0D0F89F
:10116000BDE8F09F00BF00F00702064B19684FF67C
:10117000FF031940044B0B4343EA0221014B196062
:1011800000BF70470CED00E00000FA057047024612
:101190001068416200207047F0B503461546186894
:1011A000446A21B944EA05401E68B06219E0186833
:1011B000806A04EB1044002208E0186800F5827091
:1011C00050F8220004EB1044501CC2B2481E90425A
:1011D000F3D844EA0547186800F582704E1E40F8BF
:1011E00026700020F0BD10B50446D4F8040403F0C6
:1011F00034FB10BD70B504460D46C5EBC50304F1C4
:101200003C0101EB8301CA682946D4F8040403F0C9
:1012100068FA70BD70B504460D46C5EBC50304F50C
:10122000FE7101EB8301CA682946D4F8040403F077
:10123000CBFA70BD10B50446D4F8040403F010FBDB
:1012400010BD70B504460E4606F0800080280AD115
:1012500006F00F00C0EBC00104F13C0000EB81057B
:101260000120687009E006F00F00C0EBC00104F532
:10127000FE7000EB81050020687006F00F002870FA
:1012800000BF94F8BC03012801D1022070BD0120E9
:1012900084F8BC0300BF2946206804F03FF900BF72
:1012A000002084F8BC0300BF00BFEFE770B5044620
:1012B0000E4606F00F006168884201D9012070BD1A
:1012C00006F0800080280AD106F00F00C0EBC001B4
:1012D00004F13C0000EB81050120687009E006F094
:1012E0000F00C0EBC00104F5FE7000EB810500208B
:1012F00068700020A87006F00F00287000BF94F8F6
:10130000BC03012801D10220D9E7012084F8BC03E5
:1013100000BF2946206804F0E7FB00BF002084F8E6
:10132000BC0300BF00BFCAE770B504460D4600BF4E
:1013300094F8BC03012801D1022070BD012084F87B
:10134000BC0300BF05F08000802805D105F00F0127
:10135000206804F01DFE02E0206804F003FE00BFD8
:10136000002084F8BC0300BF00BFE6E7024601F09E
:101370000F00C0EBC00302F5FE7000EB8300806934
:1013800070472DE9F04705460E4690461F464FF040
:10139000000906F0800080280AD106F00F00C0EB9B
:1013A000C00105F13C0000EB81040120607009E000
:1013B00006F00F00C0EBC00105F5FE7000EB8104E4
:1013C0000020607006F00F002070C4F80880E770FD
:1013D000607808B12078E080022F01D100202071D0
:1013E00000BF95F8BC03012802D10220BDE8F087B8
:1013F000012085F8BC0300BF2146286803F0AAFF3E
:1014000000BF002085F8BC0300BF4846EEE72DE989
:10141000F04104460E461746984606F00F00C0EB12
:10142000C00104F5FE7000EB8105EF60C5F8148083
:101430000020A861687006F00F002870206901285C
:1014400000D12F6106F00F0028B9227C29462068C0
:1014500004F026FA04E0227C2946206804F0D8FB38
:101460000020BDE8F08170B504460D4605F00F0080
:101470006168884201D9012070BD05F08000802894
:101480000AD105F00F00C0EBC00104F13C0000EBF5
:1014900081060120707007E0C5EBC50104F5FE7000
:1014A00000EB8106002070700120B07005F00F0085
:1014B000307000BF94F8BC03012801D10220DBE7A3
:1014C000012084F8BC0300BF3146206804F053FBC0
:1014D00005F00F0028B9217C04F57172206804F032
:1014E000CBFA00BF002084F8BC0300BF00BFC3E7F5
:1014F0002DE9F04104460E461746984606F00F00C7
:10150000C0EBC00104F13C0000EB8105EF60C5F8C1
:1015100014800020A8610120687006F00F00287078
:101520002069012800D12F6106F00F0028B9227C24
:101530002946206804F0B4F904E0227C294620689A
:1015400004F066FB0020BDE8F0812DE9FE4F044663
:1015500020680290029D206804F045FD00287DD19E
:10156000206804F07FFD08B9BDE8FE8F206804F014
:1015700079FD00F00200022805D12068406900F0E2
:10158000020021684861206804F06CFD00F0100042
:10159000102846D12068806920F0100021688861F9
:1015A0000298D0F8209009F00F00C0EBC00104F5BC
:1015B000FE7000EB810BC9F3434002281AD147F6B5
:1015C000F07009EA000030B3C9F30A12DBF80C101E
:1015D000029804F04CFDC9F30A11DBF80C00084432
:1015E000CBF80C00C9F30A11DBF818000844CBF85B
:1015F000180010E0C9F3434006280CD1082204F576
:101600007171029804F033FDC9F30A11DBF8180078
:101610000844CBF818002068806940F01000216869
:101620008861206804F01EFD00F40020B0F5002F52
:1016300052D10026206804F0E5FC824649E00AF019
:101640000100E8B3F1B2206804F0FFFC804608F026
:10165000010058B1012105F5306000E021E200EB06
:10166000461081603146204601F0A2FC08F00800D7
:10167000082809D1082105F5306000EB461081608B
:101680003146204601F062FC08F01000102805D118
:10169000102105F5306000EB4610816008F0200055
:1016A000202805D1202105F5306000EB461081602F
:1016B00008F40050B0F5005F08D14FF4005100E08D
:1016C00004E005F5306000EB46108160761C4FEABF
:1016D0005A0ABAF1000FB2D1206804F0C3FC00F43A
:1016E0008020B0F5802F7ED1206804F081FC8246F6
:1016F000002683E00AF0010000287CD0F1B22068C7
:1017000004F08AFC804608F00100F0B306F00F01F7
:1017100001208840019040F634004159019821EAA7
:10172000000040F634014851012105F5106000EB3E
:10173000461081602069012824D1C6EBC60104F15E
:101740003C0000EB8100C6EBC602C16804F13C001E
:1017500000EB820080680144C6EBC60204F13C0045
:1017600000EB8200C1606EB9C6EBC60104F13C001B
:1017700000EB8100406928B904F5717201212068ED
:1017800004F07AF9F1B2204600E001E0FFF732FD03
:1017900008F00800082805D1082105F5106000EBC5
:1017A0004610816008F01000102805D1102105F5C1
:1017B000106000EB4610816008F04000402805D121
:1017C000402105F5106000EB4610816008F0020032
:1017D000022805D1022105F5106000EB461081605A
:1017E00008F0800001E00DE005E0802803D13146DB
:1017F000204601F09BFC761C4FEA5A0ABAF1000F12
:101800007FF478AF206804F02DFC00F00040B0F1C8
:10181000004F1CD140F60400405920F0010140F671
:101820000400415194F8F403012807D1002084F802
:10183000F40300212046FFF7A9FC02E0204600F057
:1018400063FA2068406900F0004021684861206820
:1018500004F008FC00F40060B0F5006F0ED140F613
:101860000800405900F0010010B1204600F0A4FA31
:101870002068406900F4006021684861206804F035
:10188000F1FB00F48050B0F5805F7DD140F604009C
:10189000405920F0010140F6040041511021206818
:1018A00004F076FB00273EE04FF67F3105F510602F
:1018B00000EB4710816005F5106000EB47100068F1
:1018C00020F4001105F5106000EB4710016005F5EC
:1018D000106000EB4710006840F0006105F51060F3
:1018E00000EB471001604FF67F3105F5306000EBEB
:1018F0004710816005F5306000EB4710006820F468
:10190000001105F5306000EB4710016005F530600F
:1019100000EB4710006840F0006105F5306000EB17
:10192000471001607F1C6068B842BDD840F61C00BB
:10193000405940F0011140F61C004151206B70B13C
:10194000D5F8840840F00B01C5F8841840F644002F
:10195000405940F00B0140F6440041510FE040F681
:101960001400405942F22B01084340F6140148513B
:10197000081F405940F00B014FF401604151D5F868
:10198000000820F4FE6000E00DE0C5F80008217CAE
:1019900004F57172206804F06FF82068406900F463
:1019A000805021684861206804F05CFB00F400501E
:1019B000B0F5005F17D1206803F034FD206804F013
:1019C000FFFAE06000F0D4FA0090227B20680099D2
:1019D00004F098FB204600F07FF92068406900F48D
:1019E000005021684861206804F03CFB00F00800CA
:1019F000082808D1204600F08EF92068406900F0E0
:101A0000080021684861206804F02CFB00F4801075
:101A1000B0F5801F0AD100263146204600F043F879
:101A20002068406900F4801021684861206804F053
:101A300019FB00F40010B0F5001F0AD10026314652
:101A4000204600F039F82068406900F40010216851
:101A50004861206804F006FB00F08040B0F1804F40
:101A600008D12046FFF7BFFB2068406900F08040A6
:101A700021684861206804F0F5FA00F004000428A9
:101A80000FD12068D0F8049009F00400042802D196
:101A90002046FFF7CFFB2068406840EA0900216834
:101AA000486000BF60E570B504460D462946D4F88D
:101AB000040402F05DFF70BD70B504460D46294672
:101AC000D4F8040402F057FF70BD70B58AB0044624
:101AD00014B901200AB070BD266894F8BD0328B976
:101AE000002084F8BC03204600F0A2F8032084F80C
:101AF000BD03F06B00F4807008B9002121612068FB
:101B000003F0C6FE282204F110016846FEF78DFBA3
:101B100094E80F0003F09AFC20B1022084F8BD0382
:101B20000120D7E70021206804F0B2FA002531E057
:101B30000121C5EBC50204F13C0000EB82004170BD
:101B4000C5EBC50104F13C0000F82150C5EBC5010F
:101B500000EB8100C5800021C5EBC50204F13C000B
:101B600000EB8200C170C5EBC50204F13C0000EB44
:101B700082008160C5EBC50204F13C0000EB8200ED
:101B8000C160C5EBC50204F13C0000EB820041617D
:101B9000681CC5B26068A842CAD800252AE00021A6
:101BA000C5EBC50204F5FE7000EB82004170C5EB89
:101BB000C50104F5FE7000F821500021C5EBC502F7
:101BC00000EB8200C170C5EBC50204F5FE7000EBAE
:101BD00082008160C5EBC50204F5FE7000EB820057
:101BE000C160C5EBC50204F5FE7000EB82004161E7
:101BF000681CC5B26068A842D1D8282204F110013F
:101C00006846FEF712FB94E80F0003F051FD20B187
:101C1000022084F8BD0301205CE7002084F838002E
:101C2000012084F8BD03206803F030FD002051E757
:101C300010B586B00446142101A8FEF70FFB2068FA
:101C4000B0F1A04F42D100BF0020009020480068B2
:101C500040F001001E4908600846006800F00100DD
:101C6000009000BF00BF4FF4C050019002200290CE
:101C700000200390032004900A20059001A9154834
:101C8000FFF7A2F800BF1248001D006840F0800076
:101C90000F49091D086000BF002000900C48143057
:101CA000006840F480400A49143108600846006822
:101CB00000F48040009000BF00BF00BF002211462A
:101CC0004320FFF711FA4320FFF7FEF906B010BDDD
:101CD000303802400000024070B504460125E0683B
:101CE00008B9002506E0E068022801D1012501E0DD
:101CF000FEF75BFD2946D4F8040402F0B8FED4F8E0
:101D0000040402F06BFE70BD10B50446D4F8040460
:101D100002F091FE10BD10B50446D4F8040402F0A0
:101D200095FE10BD70B504460D4600BF94F8BC0387
:101D3000012801D1022070BD012084F8BC0300BF3E
:101D400084F838502946206804F0BDF900BF00200F
:101D500084F8BC0300BF00BFEDE710B5044604F5EE
:101D60007171D4F8040402F099FE10BD70B50446F8
:101D7000256800BF94F8BC03012801D1022070BD82
:101D8000012084F8BC0300BFA06A012806D1A06925
:101D9000012803D0A86B40F48030A863206804F0C9
:101DA000D9F8206803F060FC00BF002084F8BC0371
:101DB00000BF00BFE3E7000010B50446D4F80404F8
:101DC00002F0C9FE2068D0F8000E40F00100216842
:101DD000C1F8000E206A28B10348006840F00600F0
:101DE0000149086010BD000010ED00E070B5044628
:101DF0000D460CB9012070BD5848006800F00F0076
:101E0000A84209D255490D700846006800F00F003D
:101E1000A84201D00120EEE7207800F0020002285D
:101E20001DD1207800F00400042805D14C4800683A
:101E300040F4E0504A490860207800F00800082883
:101E400005D14748006840F460404549086044486F
:101E5000006820F0F000A16808434149086020783C
:101E600000F00100A8B36068012807D13C48083899
:101E70000068C0F34040B8B90120BCE760680228A0
:101E800002D06068032807D1354808380068C0F3DD
:101E9000406048B90120AEE7314808380068C0F317
:101EA000400008B90120A6E72D48006820F0030093
:101EB000616808432A490860FFF78CF8064609E084
:101EC000FFF788F8801B41F28831884202D903204D
:101ED00091E707E02248006800F00C006168B0EB71
:101EE000810FEDD11D48006800F00F00A84209D90C
:101EF0001A490D700846006800F00F00A84201D092
:101F0000012078E7207800F00400042807D1144865
:101F1000006820F4E050E168084311490860207827
:101F200000F00800082808D10D48006820F460403F
:101F3000216940EAC1000A49086000F01FF8084919
:101F40000968C1F30311074A515CC840064908609B
:101F500006480068FFF76EF800204CE7003C02409E
:101F600008380240F48D000870000020680000204E
:101F70000148006870470000700000202DE9F0471C
:101F8000002400250026A1462548006800F00C002A
:101F900020B1042805D008283AD105E0DFF8849064
:101FA00039E0DFF8849036E01D48001F006800F03B
:101FB0003F041B48001F006800F4800078B11A48F5
:101FC0001749091F0968C1F38811A0FB0170014678
:101FD000224600233846FEF7F7F805460EE0114882
:101FE0000F49091F0968C1F38811A0FB0170014660
:101FF000224600233846FEF7E7F805460848001F4A
:102000000068C0F30140401C4600B5FBF6F902E051
:10201000DFF8109000BF00BF4846BDE8F087000021
:10202000083802400024F40040787D01F8B50446E9
:102030000CB90120F8BD207800F00100002874D010
:10204000F948006800F00C0004280DD0F64800683C
:1020500000F00C00082813D1F348001F006800F4BA
:102060008000B0F5800F0BD1EF4808380068C0F34E
:102070004040002859D06068002856D10120D9E797
:1020800000BF6068B0F5803F08D1E74808380068B5
:1020900040F48030E449083908601EE06068B0F51B
:1020A000A02F0DD1E0480838006840F48020DE49B8
:1020B000083908600846006840F4803008600CE089
:1020C000D9480838006820F48030D74908390860BA
:1020D0000846006820F48020086000BF606890B166
:1020E000FEF778FF054606E0FEF774FF401B642804
:1020F00001D903209EE7CC4808380068C0F340406F
:102100000028F1D011E0FEF765FF054606E0FEF776
:1021100061FF401B642801D903208BE7C2480838BF
:102120000068C0F340400028F1D1207800F00200A0
:1021300002285FD1BC48006800F00C0058B1BA48D2
:10214000006800F00C0008281CD1B748001F006888
:1021500000F48000B0B9B44808380068C0F340000B
:1021600020B1E068012801D0012063E7AE480838BB
:10217000006820F0F800216940EAC100AA49083946
:10218000086037E0E06800B30120A8490860FEF766
:1021900021FF054606E0FEF71DFF401B022801D97E
:1021A000032047E7A04808380068C0F34000002833
:1021B000F1D09D480838006820F0F800216940EA15
:1021C000C10099490839086014E000209749086067
:1021D000FEF700FF054606E0FEF7FCFE401B022866
:1021E00001D9032026E7904808380068C0F3400072
:1021F0000028F1D1207800F0080008282CD160696F
:10220000A8B101208A490860FEF7E4FE054606E011
:10221000FEF7E0FE401B022801D903200AE78248AE
:102220006C300068C0F340000028F1D014E00020BA
:102230007F490860FEF7CEFE054606E0FEF7CAFEBF
:10224000401B022801D90320F4E677486C3000686F
:10225000C0F340000028F1D1207800F004000428E9
:1022600070D1002770483830006800F0805090B975
:1022700000BF002000906C483830006840F080506B
:102280006949383108600846006800F080500090C5
:1022900000BF00BF01276748006800F48070B0B934
:1022A0006448006840F4807062490860FEF792FE5E
:1022B000054606E0FEF78EFE401B022801D90320EA
:1022C000B8E65C48006800F480700028F2D000BFD7
:1022D000A068012808D154486830006840F0010027
:1022E0005149683108601DE0A06805280DD14E48AD
:1022F0006830006840F004004B49683108600846C7
:10230000006840F0010008600CE047486830006851
:1023100020F001004449683108600846006820F058
:102320000400086000BFA068A8B1FEF753FE054690
:1023300009E0FEF74FFE401B41F28831884202D986
:10234000032077E626E0384868300068C0F3400094
:102350000028EED013E0FEF73DFE054608E0FEF74C
:1023600039FE401B41F28831884201D9032061E6E1
:102370002D4868300068C0F340000028EFD1012FDD
:1023800007D129483830006820F08050264938317C
:10239000086000BFA069002845D02348006800F00D
:1023A0000C0008285DD0A069022845D100201F49F3
:1023B0000866FEF70FFE054606E0FEF70BFE401B23
:1023C000022801D9032035E6174808380068C0F311
:1023D00040600028F1D1D4E907010843616A40EA6E
:1023E00081110122A06AC2EB500041EA00412C2079
:1023F000005D41EA00600C49091F086001200B499B
:102400000866FEF7E7FD054606E0FEF7E3FD401B24
:10241000022801D903200DE6034808380068C0F3FC
:1024200040600028F1D03FE00838024000004742F9
:10243000800E47420070004000201C490866FEF7ED
:10244000C9FD054606E0FEF7C5FD401B022801D97F
:102450000320EFE516480068C0F340600028F2D181
:1024600022E0A069012800D1E4E51148001D0668BA
:1024700006F48001E069814214D106F03F01206A30
:1024800081420FD147F6C0703040616A884209D15D
:1024900006F44031A06A814204D106F07061E06A1E
:1024A000814201D00120C5E50020C3E5000047427C
:1024B0000038024070B504462546681EB0F1807FA2
:1024C00001D301200FE0681E4FF0E02148610F2189
:1024D0004FF0FF3003F014FF00204FF0E02188613F
:1024E00007200861002070BD00BFFEE730B50B4635
:1024F000002100BF16E00A24B4EB107F05D9302478
:1025000004EB107403F8114005E0412404EB10744F
:102510000A3C03F81140000100254C00641C1D55C5
:102520004C1CE1B29142E6DB30BD000008B5054924
:1025300009680143034A116011460968014000918E
:1025400000BF08BD30380240F0B502460B460024FB
:102550000021186890FAA0F0B0FA80F48AE0012512
:10256000A540186800EA050100297DD058680128B7
:1025700002D0586802281CD19868956891FAA1F693
:10258000B6FA86F677000326BE40B54391FAA1F667
:10259000B6FA86F6760000FA06F63543956000BF77
:1025A000D86855688D4301FB00F63543556000BF80
:1025B00000BF1869D56891FAA1F6B6FA86F67700D9
:1025C0000326BE40B54391FAA1F6B6FA86F6760028
:1025D00000FA06F63543D56000BF5868022831D1AD
:1025E00091FAA1F0B0FA80F0082814D25869156A5F
:1025F00091FAA1F6B6FA86F6B7000F26BE40B543AB
:1026000091FAA1F6B6FA86F6B60000FA06F6354358
:10261000156200BF16E05869556A0E0A96FAA6F6CA
:10262000B6FA86F6B7000F26BE40B5430E0A96FAF4
:10263000A6F6B6FA86F6B60000FA06F635435562F7
:1026400000BF00BF5868156891FAA1F6B6FA86F681
:1026500077000326BE40B54391FAA1F6B6FA86F696
:10266000760000FA06F600E003E03543156000BF8F
:1026700000BF641C1868E04000287FF470AFF0BD14
:1026800010B5044600F0E2FD2060206800F0AAFDCD
:102690006060606800F0B6FDA060606800F0C4FD96
:1026A000E06010BD02480068C0F388107047000069
:1026B00004380240016921F490410161416921F02F
:1026C0002A0141617047C16841F40051C1607047FF
:1026D0002DE9FF4104460D4601270026204600F063
:1026E00059F8002845D1E968686808432969084312
:1026F000A9690843E16849F20C6291430843E0602C
:10270000A868216921F440510143216100BF686933
:10271000616921F440710143616100BF6846FFF7C0
:10272000AFFF1648844201D1039E17E0144884424B
:1027300001D1029E12E01348844201D1029E0DE0B5
:102740001148844201D1039E08E01048844201D11F
:10275000029E03E00E48844200D1029E4EB12868DA
:1027600038B10027314620462B68AA6900F017F8D7
:1027700000BF384604B0BDE8F08100000010014001
:10278000004400400048004000140140004C00405C
:10279000005000400146C868C0F3403070472DE942
:1027A000FC5F06460C4691461D46B9F5004F68D1C0
:1027B0000220A0FB057003461920A4FB00A00146DF
:1027C0003A465046FDF700FD6421B0FBF1F04FEAB8
:1027D000001A0220A0FB05710B461920A4FB00B1D2
:1027E0003A465846FDF7F0FC83460220A0FB0570F0
:1027F00003461920A4FB00013A46CDE90001FDF78C
:10280000E3FC6421B0FBF1F000EBC00101EB001030
:10281000ABEB8000322101EBC0006421B0FBF1F092
:1028200000F0F8000AEB400A0220A0FB0570034606
:102830001920A4FB00B13A465846FDF7C5FC834673
:102840000220A0FB057003461920A4FB00013A46B4
:10285000CDE90001FDF7B8FC6421B0FBF1F000EB1D
:10286000C00101EB0010ABEB8000322101EBC00096
:102870006421B0FBF1F000F00700504480B2B0607A
:1028800067E00420A0FB057003461920A4FB00A00C
:1028900001463A465046FDF797FC82460420A0FBCD
:1028A00005711920A4FB00B084463A460B465846F1
:1028B0006146FDF789FC6421B0FBF1F000EBC0013B
:1028C00001EB0010AAEB8000322101EB0010642123
:1028D000B0FBF1F000F0F00A0420A0FB0570034605
:1028E0001920A4FB00B001463A465846FDF76CFC9F
:1028F0006421B0FBF1F00AEB001A0420A0FB057084
:1029000003461920A4FB00B13A465846FDF75CFC8B
:1029100083460420A0FB057003461920A4FB000198
:102920003A46CDE90001FDF74FFC6421B0FBF1F020
:1029300000EBC00101EB0010ABEB8000322101EB9A
:1029400000106421B0FBF1F000F00F00504480B2A1
:10295000B060BDE8FC9F70B50546D5F8BC424FF4A9
:102960000770005D48B94FF40670005928B1607ACD
:1029700018B90121284602F0CCF88121284602F03E
:10298000C8F8607A022807D18121284602F0C1F8F0
:102990000121284602F0BDF870BD000070B5054663
:1029A000D5F8BC424FF4057001594FF40D70015138
:1029B0004FF4067001594FF40E7001510121284661
:1029C00001F071FF1F2812D12B49D4F81002884260
:1029D0000DD140F21D20005D012808D840F21E20D4
:1029E000005D20B140F21E20005D10280DD940F29C
:1029F0001D20015D20230522284601F0CCF802208D
:102A000060722846FFF7A7FF33E040F21D20015D0A
:102A100004F21F22284600F01BFD00280BDA207A62
:102A2000052804D10121284600F0CCF821E02846F1
:102A3000FFF791FF1DE0207A022819D0207A0128A3
:102A400016D0207A032813D0E06830B104F11001C9
:102A50002846E26800F0D4F80BE0E06820B90021D5
:102A6000284600F0AFF804E02846FFF774FF00E0C6
:102A700070BD00BFFCE700005553424370B50646E9
:102A80000C46D6F8BC52687A022808D1812130461B
:102A900002F03FF80121304602F03BF80CE004F070
:102AA0008000802807D1687A012804D001213046AF
:102AB00000F088F800E070BD00BFFCE770B5054687
:102AC0000E46D5F8BC42207A022804D0032812D042
:102AD000042815D10EE040F21D20015D04F21F22F2
:102AE000284600F0B5FC002803DA0121284600F052
:102AF00069F806E000BF0021284600F063F800E016
:102B000000BF00BF70BD70B505460E46D5F8BC428B
:102B1000207A10B1012813D103E02846FFF73EFFC9
:102B20000FE040F21D20015D04F21F22284600F054
:102B30008FFC002803DA0121284600F043F800E06A
:102B400000BF00BF70BDD0F8BC1200220A727047EF
:102B500070B50546D5F8BC4200202072607284F83A
:102B6000610284F8600284F86202D5F8C00201684C
:102B7000002088470121284601F082FE8121284655
:102B800001F07EFE1F2304F504720121284601F0A6
:102B90000DFF70BD70B50546D5F8BC42002020720F
:102BA000012060728121284601F075FD012128462F
:102BB00001F071FD1F2304F504720121284601F084
:102BC000F5FE70BD70B505460E46D5F8BC420B4803
:102BD000C4F830024FF40F700655002020720D2308
:102BE00004F50C728121284601F0BFFF1F2304F574
:102BF00004720121284601F0D9FE70BD555342539D
:102C00002DE9F04106460F461546D6F8BC424FF472
:102C100006700059A84203D24FF40670005900E034
:102C2000284680464FF40E700059411B4FF40E7039
:102C300001510021001D01550420207243463A46EF
:102C40008121304601F091FFBDE8F08110B50349C4
:102C50000348FDF7ABFD0349087010BDE5010020F6
:102C6000D0010020E401002000B587B0142102A8A3
:102C7000FDF7F4FA00BF002001902648006840F0FC
:102C80001000244908600846006800F01000019018
:102C900000BF00BF00BF002001900846006840F060
:102CA000800008600846006800F08000019000BFC6
:102CB00000BF00BF002001900846006840F00100FE
:102CC00008600846006800F00100019000BF00BFE6
:102CD00000BF002001900846006840F0080008602E
:102CE0000846006800F00800019000BF00BF002205
:102CF00008210948FEF768F9082002900120039096
:102D000000200490059002A90348FEF75DF807B083
:102D100000BD000030380240001002402DE9F041B3
:102D20008EB01C2107A8FDF799FA182101A8FDF71C
:102D300095FA1020434909680143424A116011463F
:102D400009680140009100BF00BF0120FFF7EEFBC2
:102D50004FF4C060019002200290032003900020F5
:102D6000049005900720069001A93748FFF7ECFB77
:102D70002521364B1B68C3F3022000242546034659
:102D8000C3F1070CBCF1040F02D94FF0040C01E0B1
:102D9000C3F1070C674603F1040CBCF1070F02D224
:102DA0004FF0000C01E0A3F1030C66464FF0010C5C
:102DB0000CFA07FCACF1010C0CEA040C0CFA06FC52
:102DC0004FF0010808FA06F8A8F1010808EA05081A
:102DD0004CEA080200BF002904DB1007030E1C4860
:102DE000435407E01007040E18480C3001F00F039D
:102DF0001B1FC45400BF2520002809DB00F01F0260
:102E0000012191404209920002F1E022C2F8001132
:102E100000BF4FF4E13007900020089009900A901D
:102E20000C200B9000200C900D9007A90948FFF78B
:102E30004FFC0848FFF73EFC0648FFF744FC0EB085
:102E4000BDE8F08144380240000002400CED00E093
:102E500000E400E00010014000B58FB01C2108A87C
:102E6000FDF7FCF9182102A8FDF7F8F94FF400303E
:102E70001A4909680143194A11601146096801405D
:102E8000019100BF00BF0820FFF750FB60200290B7
:102E90000220039003200490002005900690072054
:102EA000079002A90E48FFF74FFB4FF4E13008905E
:102EB000002009900A900B900C200C9000200D909F
:102EC0000E9008A90748FFF703FC0648FFF7F2FB3E
:102ED0000448FFF7F8FB0FB000BD00004038024087
:102EE000000C02400044004010B500220D490E487D
:102EF00001F0AFFB08B1FDF758FC0C490A4801F09E
:102F00009DFF08B1FDF751FC0949074801F0D1FECA
:102F100008B1FDF74AFC044802F06EF808B1FDF76D
:102F200044FC10BD7400002090D80120E80000206F
:102F3000C400002000BFFEE77047000010B5024843
:102F4000FEF703FB10BD000060DD01202DE9F04716
:102F500004460D4626683746D6F8408007F53060AF
:102F600000EB4510D0F80890104880450BD909F4C3
:102F70000040B0F5004F06D14FF4004107F5306036
:102F800000EB451081602046FEF7E7FE07488045CC
:102F900008D92069012805D104F571720121206842
:102FA00002F06AFD0020BDE8F08700000A30544FAF
:102FB0002DE9F04705460C46D5F800804646D8F87E
:102FC000409006F5306000EB4410876828690128BE
:102FD00073D107F0080008280FD1524881450BD95A
:102FE00007F40040B0F5004F06D14FF4004106F55C
:102FF000306000EB4410816091E007F02000202851
:1030000006D1202106F5306000EB4410816086E097
:1030100007F0280000280ED1424881450CD907F45A
:103020000040B0F5004F07D14FF4004106F5306085
:1030300000EB4410816072E0C4EBC40105F5FE7042
:1030400000EB8100816806F5306000EB44100069F8
:10305000C0F31200091AC4EBC40205F5FE7000EBC0
:1030600082008161C4EBC40105F5FE7000EB8100B4
:10307000C4EBC402C16805F5FE7000EB82008068F5
:103080000144C4EBC40205F5FE7000EB8200C16090
:103090006CB9C4EBC40105F5FE7000EB810040691A
:1030A00028B905F571720121286802F0E5FCE1B24A
:1030B0002846FEF7AFF832E0FFE71B4881451BD1F9
:1030C00007F40040B0F5004F07D14FF4004106F57A
:1030D000306000EB4410816021E007F020002028E0
:1030E00005D1202106F5306000EB44108160E1B28B
:1030F0002846FEF78FF812E06CB9C4EBC40105F561
:10310000FE7000EB8100406928B905F5717200215D
:10311000286802F0B1FCE1B22846FEF77BF80020F7
:10312000BDE8F0870A30544F0A31544F2DE9F84F6B
:1031300007460E46D7F80090C846C6EBC60107F111
:103140003C0000EB8104D4E90510884202D901203B
:10315000BDE8F88FD4E90501451AA068A84200D25D
:10316000A568E81C4FEA900A17E0D4E90501451A62
:10317000A068A84200D2A568E81C4FEA900A387CF3
:10318000ABB2F2B200904846E16803F02FF8E06875
:103190002844E060A0692844A06108F5106000EBB5
:1031A0004610806980B2504506D3D4E905108842A4
:1031B00002D260690028D8D1D4E9050188420ED82E
:1031C00006F00F01012000FA01FB40F6340050F830
:1031D000080020EA0B0040F6340141F80800002006
:1031E000B6E77047014600BF0448006800F0F000F1
:1031F0000009034A125C21FA02F0704708380240C5
:10320000F48D0008014600BF0548006800F4E05056
:10321000044A02EB9020027821FA02F07047000085
:1032200008380240048E0008014600BF05480068C7
:1032300000F46040044A02EB5030027821FA02F0B8
:103240007047000008380240048E000810B50024C2
:1032500000BF0C48006800F00C0020B1042804D026
:10326000082809D103E0084C08E0084C06E00820D3
:1032700000F00EF8044601E0034C00BF00BF2046FA
:1032800010BD0000083802400024F40040787D01A1
:103290002DE9F041044600250026002700BF15480F
:1032A000006800F4800006461EB1B6F5800F04D118
:1032B00001E0114D03E0114D01E00F4D00BF00BFD3
:1032C000082C14D100BF0B48006800F03F00B5FB8C
:1032D000F0F8FFF7E7F908FB00F80648006800F48B
:1032E0004030012101EB10404000B8FBF0F73846B8
:1032F000BDE8F081043802400024F40040787D01EC
:1033000010B503460C46D3F8BC12107918B900204A
:1033100081F8620202E0012081F862020020C860A8
:1033200010BD2DE9F04104460F4615461E46D4F85F
:10333000BC82A819D8F86812884209D9212305222D
:103340003946204600F027FC4FF0FF30BDE8F08101
:103350000020FBE72DE9F047064689461446D6F8DB
:10336000BC524FF40670405958B940F21D20415DDF
:1033700020230522304600F00EFC4FF0FF30BDE860
:10338000F087607800F00100D8B1A07828B9062253
:103390001749284600F091FC27E0A078802805D145
:1033A00008221449284600F088FC1EE040F21D2047
:1033B000415D24230522304600F0EDFB4FF0FF3045
:1033C000DDE7D6F8C002C06909EBC90100EB81074F
:1033D000387900F105082079404501DC94F8048033
:1033E00042463946284600F068FC0020C7E7000046
:1033F0008A010020900100202DE9F0410546884611
:103400001446D5F8BC721B26207AB04200DC267A1E
:1034100032460349384600F050FC0020BDE8F081F8
:10342000AF0100202DE9F041054688461446D5F845
:10343000BC7217262079B04200DC26793246034957
:10344000384600F03AFC0020BDE8F08198010020E9
:103450002DE9F04105460F461646D5F8BC82307876
:10346000252859D00FDC1A2841D005DCE0B103280B
:1034700021D0122873D125E01B282AD01E282FD056
:1034800023287BD141E05A2838D006DC282851D0A7
:103490002A285DD02F2871D169E09E2843D0A82822
:1034A0004FD0AA286AD15BE032463946284600F060
:1034B000CBFB04466DE032463946284600F016FB49
:1034C000044666E0324639462846FFF743FF044685
:1034D0005FE032463946284600F081FB044658E05A
:1034E000324639462846FFF70BFF044651E0324684
:1034F00039462846FFF796FF04464AE032463946E9
:103500002846FFF779FF044643E03246394628460D
:1035100000F0A0FA04463CE032463946284600F066
:10352000EEF9044635E032463946284600F02CFADA
:1035300004462EE032463946284600F0EEF80446AE
:1035400027E032463946284600F05DF9044620E07F
:1035500032463946284600F0E6FB044619E00DE005
:1035600032463946284600F076FC044611E03246E1
:103570003946284600F0B1FB04460AE02023052224
:103580003946284600F007FB022088F80900C41ECF
:1035900000BF00BF2046BDE8F0812DE9F04106469E
:1035A0000F46D6F8BC42B4F86412D4F8700200FB9F
:1035B00001F5B5F5007F01D2284601E04FF4007017
:1035C0000546B4F86402B5FBF0F01FFA80F8D4F8B1
:1035D0006C22D6F8C002434604F11001D0F810C0A6
:1035E0003846E047002809DA1123042239463046DC
:1035F00000F0D1FA4FF0FF30BDE8F0812B4604F126
:1036000010028121304601F0B0FA04F519742088C7
:10361000B5FBF0F0A1680844A0602088B5FBF0F08D
:10362000E168081AE060A4F519744FF40E700059AF
:10363000411B4FF40E700151D4F8700208B90320F9
:1036400020720020D8E72DE9F04106460F46D6F853
:10365000BC42B4F86412D4F8700200FB01F5B5F571
:10366000007F01D2284601E04FF400700546B4F80F
:103670006402B5FBF0F01FFA80F8D4F86C22D6F89B
:10368000C002434604F11001D0F814C03846E047A8
:10369000002809DA032304223946304600F07BFA79
:1036A0004FF0FF30BDE8F08104F519742088B5FBB8
:1036B000F0F0A1680844A0602088B5FBF0F0E16854
:1036C000081AE060A4F519744FF40E700059411BFC
:1036D0004FF40E700151D4F8700220B90021304629
:1036E000FFF770FA17E0B4F86412D4F87002484398
:1036F000B0F5007F05D2B4F86412D4F870024843E4
:1037000001E04FF4007005462B4604F11002012140
:10371000304601F04BF90020C4E72DE9F0410646A0
:103720000F461546D6F8BC42207A002863D14FF4E4
:103730000770005D00F0800080280BD040F21D2053
:10374000015D20230522304600F025FA4FF0FF30BE
:10375000BDE8F08194F86202022808D13A230222DF
:103760003946304600F017FA4FF0FF30F0E7D6F850
:10377000C00281683846884740B13A230222394660
:10378000304600F008FA4FF0FF30E1E7A878000675
:10379000E97840EA0140297940EA01206979084343
:1037A000C4F86C02287AE97940EA0120C4F8700272
:1037B0003946304604F51B720CCAFFF7B2FD0028EB
:1037C00002DA4FF0FF30C3E7B4F86412D4F87002A5
:1037D00048434FF40671095988420AD040F21D202F
:1037E000015D20230522304600F0D5F94FF0FF306F
:1037F000AEE7022020724FF40070E0603946304698
:10380000FFF7CBFEA4E72DE9F04106460F4615462B
:10381000D6F8BC42207A002869D14FF40770005DC9
:1038200000F0800080280BD040F21D20015D202395
:103830000522304600F0AFF94FF0FF30BDE8F081CF
:1038400094F86202022808D13A230222394630460F
:1038500000F0A1F94FF0FF30F0E7D6F8C002816820
:103860003846884740B13A2302223946304600F0B4
:1038700092F94FF0FF30E1E7A8780006E97840EAD6
:103880000140297940EA012069790843C4F86C02B3
:10389000A8790006E97940EA0140297A40EA012046
:1038A000697A0843C4F870023946304604F51B7241
:1038B0000CCAFFF736FD002802DA4FF0FF30BDE7F3
:1038C000B4F86412D4F8700248434FF406710959F1
:1038D00088420AD040F21D20015D20230522304697
:1038E00000F059F94FF0FF30A8E7022020724FF4A2
:1038F0000070E06039463046FFF74FFE9EE72DE945
:10390000F04105460E469046D5F8BC42D5F8C002B7
:1039100004F51972111D43683046984707461FB9D0
:1039200094F86202022809D13A230222314628463D
:1039300000F031F94FF0FF30BDE8F081D4F86802B3
:10394000401E000E2074D4F86802401E010C617401
:10395000B4F86802401E010AA17494F86802401E7F
:10396000E074B4F8640201162175B4F8640201141D
:103970006175B4F864020112A17594F86412E175DE
:103980000820E0600020D7E72DE9F0470746884689
:103990001546D7F8BC42D7F8C00204F51972111DBC
:1039A0004368404698478146B9F1000F03D194F827
:1039B0006202022809D13A2302224146384600F029
:1039C000EAF84FF0FF30BDE8F087A87A0006E97A00
:1039D00040EA0140297B40EA0120697B0843E0601E
:1039E000002605E0002104F110008155701CC6B2CC
:1039F000E068B042F6D8D4F86802401E010E217586
:103A0000D4F86802401E010C6175B4F86802401ECB
:103A1000010AA17594F86802401EE075B4F86402CA
:103A200001162176B4F8640201146176B4F86402D8
:103A30000112A17694F86412E176A87A0006E97A78
:103A400040EA0140297B40EA0120697B0843E060AD
:103A50000020B8E72DE9FC4706460F469146D6F808
:103A6000BC42D6F8C00201AA694643683846984766
:103A70008046B8F1000F03D194F86202022809D100
:103A80003A2302223946304600F085F84FF0FF30E5
:103A9000BDE8FC87002505E0002104F11000415538
:103AA000681C85B20C2DF7D30821E1740098401EE4
:103AB000010E21750098401E010C61750098401E92
:103AC000010AA1750098401EE07502212176BDF81B
:103AD000040001146176BDF804000112A176BDF85E
:103AE0000400E0760C20E0600020D1E72DE9F041F1
:103AF000074688461646D7F8BC424FF40670005970
:103B000058B940F21D20015D20230522384600F0FF
:103B100042F84FF0FF30BDE8F081002505E00021BC
:103B200004F110004155681CC5B2122DF7D3702066
:103B300020740C21E17594F8600294F861128842B7
:103B400020D094F8601204F5107010F83110A174B0
:103B500094F8601200EBC1000179217794F86012AB
:103B600004F5107000EBC1004179617794F86002B0
:103B7000401C84F8600294F86002042802D10020FE
:103B800084F860021220E0603079122801D8307980
:103B9000E0600020BFE7F0B50446D4F8BC0290F81E
:103BA000616200F5107505F8362090F8616205EB4A
:103BB000C6052B71002690F8617200F5107505EBB3
:103BC000C7056E7190F861526D1C80F8615290F8D3
:103BD0006152042D02D1002580F86152F0BDF0B58C
:103BE00006460F461446D6F8BC5295F862020128E4
:103BF0000DD1207900F00300022808D124230522EA
:103C000039463046FFF7C7FF4FF0FF30F0BD20794F
:103C100000F00300012803D1002085F862020FE0C4
:103C2000207900F00300022802D185F8620207E043
:103C3000207900F00300032802D1002085F86202F9
:103C40000020E86000BFE1E72DE9F04105460E469F
:103C50001746D5F8BC424FF40670005958B140F2EF
:103C60001D20015D202305222846FFF794FF4FF019
:103C7000FF30BDE8F08194F86202022809D13A23AE
:103C8000022231462846FFF786FF05202072801F5A
:103C9000EFE7D5F8C00281683046884748B13A233B
:103CA000022231462846FFF776FF05202072801F4A
:103CB000DFE70020E06000BFDBE730B503460C46DD
:103CC0001146D96005E0481E81B2655C03F1100021
:103CD00045540029F7D1002030BD2DE9F0410546BB
:103CE0000F461646D5F8BC42707800F00200022854
:103CF00009D12423052239462846FFF74CFF4FF00F
:103D0000FF30BDE8F0813946284604F51B720CCA25
:103D1000FFF707FB002802DA4FF0FF30F1E7002041
:103D2000E06000BFEDE72DE9F04106468846154604
:103D3000D6F8BC42207A002873D14FF4067000599F
:103D400058B940F21D20015D202305223046FFF7BF
:103D500022FF4FF0FF30BDE8F0814FF40770005DA7
:103D600000F0800080280AD140F21D20015D202350
:103D700005223046FFF70FFF4FF0FF30EBE7D6F894
:103D8000C00281684046884740B13A23022241463A
:103D90003046FFF700FF4FF0FF30DCE7D6F8C002F7
:103DA000C1684046884740B1272302224146304639
:103DB000FFF7F1FE4FF0FF30CDE7A8780006E97875
:103DC00040EA0140297940EA012069790843C4F8B2
:103DD0006C02287AE97940EA0120C4F87002414671
:103DE000304604F51B720CCAFFF79BFA002802DA72
:103DF0004FF0FF30AFE7B4F86412D4F8700200FB64
:103E000001F74FF406700059B8420BD040F21D2064
:103E1000015D202305223046FFF7BDFE4FF0FF3045
:103E200099E711E0B7F5007F01D2384601E04FF481
:103E300000700746012020723B4604F11002012168
:103E4000304600F0B3FD04E041463046FFF7FBFB8F
:103E500081E700207FE72DE9F041064688461546B8
:103E6000D6F8BC42207A00287BD14FF40670005966
:103E700058B940F21D20015D202305223046FFF78E
:103E80008AFE4FF0FF30BDE8F0814FF40770005D0F
:103E900000F0800080280AD140F21D20015D20231F
:103EA00005223046FFF777FE4FF0FF30EBE7D6F8FC
:103EB000C00281684046884748B13A230222414601
:103EC0003046FFF768FE05202072801FDBE7D6F83A
:103ED000C002C1684046884748B1272302224146B4
:103EE0003046FFF758FE05202072801FCBE7A878E8
:103EF0000006E97840EA0140297940EA0120697921
:103F00000843C4F86C02A8790006E97940EA014048
:103F1000297A40EA0120697A0843C4F870024146D0
:103F2000304604F51B720CCAFFF7FBF9002802DAD1
:103F30004FF0FF30A7E7B4F86412D4F8700200FB2A
:103F400001F74FF406700059B8420BD040F21D2023
:103F5000015D202305223046FFF71DFE4FF0FF30A4
:103F600091E711E0B7F5007F01D2384601E04FF448
:103F700000700746012020723B4604F11002012127
:103F8000304600F013FD04E041463046FFF75BFB8E
:103F900079E7002077E70346C82008604FF40070F7
:103FA00010800020704700207047014600207047B5
:103FB0000146002070470146002070472DE9F0417E
:103FC00007460E4614461D4669060A0C6002314635
:103FD00004F000FD0020BDE8F0812DE9F041074626
:103FE0000E4614461D4669060A0C6002314604F06E
:103FF000FFFC0020BDE8F081704730B501460A465D
:104000001378521C147843EA042030BD10B5FCF735
:10401000E7FF10BD00B593B0302107A8FCF71EF9EB
:10402000142102A8FCF71AF900BF002001902448CF
:10403000006840F08050224908600846006800F09F
:104040008050019000BF00BF00BF002001901D48BC
:10405000006840F480401B4908600846006800F48E
:104060008040019000BF00BF01200790000408902D
:1040700002200D9041050E9119210F914FF4A87166
:104080001091022111910721129107A8FDF7CEFF8F
:1040900008B1FCF78AFB0F20029002200390002059
:1040A00004904FF4A05005904FF4805006900521E5
:1040B00002A8FDF79BFE08B1FCF777FB13B000BD2B
:1040C00040380240007000400548006840F470002D
:1040D000034908604FF0006001498039086070476B
:1040E00088ED00E010B500BF06480068C0F340103E
:1040F00038B100BF03484068C0B2044602490968AD
:10410000884710BD001001405400002070B50446DF
:104110000D46D4F8B80228B1D4F8B802294642684E
:1041200020469047002070BD70B504460D4694F8B7
:104130009C02012804D0022803D003280CD101E0FE
:1041400000BF00BF6888012805D10020C4F8A40280
:10415000204600F04AF804E02946204600F01BF80B
:1041600000BF00BF70BD70B506460C4615462B4615
:1041700022460021304600F019FC002070BD70B5C9
:1041800006460C4615462B4622460021304600F0D6
:10419000ECFC002070BD70B504460D468021204621
:1041A00000F0B7FC0021204600F0B3FC70BD10B554
:1041B00004460520C4F8940200231A4619462046F6
:1041C00000F0F4FB002010BD70B504460E46154605
:1041D0000220C4F89402A561E5612B463246002115
:1041E000204600F0C2FC002070BD10B5044604203B
:1041F000C4F8940200231A461946204600F0B5FC84
:10420000002010BD70B505460C462DB92246064962
:1042100006A000F0DEF904E02246034903A000F006
:10422000D8F9014870BD000060DB01204D534320E8
:10423000436F6E66696700000246122008800148DD
:10424000704700009000002070B505460C462DB95F
:104250002246064906A000F0BCF904E022460349C4
:1042600003A000F0B6F9014870BD000060DB01203A
:104270004D534320496E74657266616365000000AA
:10428000024604200880014870470000A400002076
:1042900070B505460C462246024903A000F099F984
:1042A000004870BD60DB012053544D6963726F6537
:1042B0006C656374726F6E696373000070B5054658
:1042C0000C462DB92246064906A000F082F904E00A
:1042D0002246034903A000F07CF9014870BD0000AC
:1042E00060DB012053544D3332204D6173732053F2
:1042F000746F72616765000070B505460C461A2040
:104300002080FCF777FC014870BD0000A800002069
:1043100070B504460D46E888012804D02946204699
:10432000FFF739FF1EE094F89C02012804D0022810
:1043300003D0032810D109E000BF0020A0600122B3
:1043400004F108012046FFF73FFF0AE00122211D8A
:104350002046FFF739FF04E029462046FFF71BFF00
:1043600000BF00BF70BDF8B504460E4600200090A7
:104370000027002570880012082875D2DFE800F0B9
:10438000C7040C20C7C7A5B5207CD4F8B4120A68AE
:10439000694690470746C1E0207C40B9D4F8B8028E
:1043A000816A6846884707460220787007E0D4F89B
:1043B000B802C16A68468847074602207870ADE0B7
:1043C000B078062878D2DFE800F00316293C506365
:1043D000D4F8B402406838B1207CD4F8B4124A68EA
:1043E00069469047074605E031462046FFF7D3FE71
:1043F000681CC5B267E0D4F8B402806838B1207C8C
:10440000D4F8B4128A6869469047074605E03146F9
:104410002046FFF7C0FE681CC5B254E0D4F8B402D1
:10442000C06838B1207CD4F8B412CA686946904795
:10443000074605E031462046FFF7ADFE681CC5B2D1
:1044400041E0D4F8B402006938B1207CD4F8B41249
:104450000A6969469047074605E031462046FFF75E
:104460009AFE681CC5B22EE051E0D4F8B40240694F
:1044700038B1207CD4F8B4124A696946904707469F
:1044800005E031462046FFF786FE681CC5B21AE0FB
:10449000D4F8B402806940B1207CD4F8B4128A699F
:1044A00069469047074606E006E031462046FFF79A
:1044B00072FE681CC5B206E031462046FFF76BFE6F
:1044C000681CC5B200BF00BF28E0207C30B9D4F81A
:1044D000B802416B68468847074605E031462046EA
:1044E000FFF759FE681CC5B218E0207C40B9D4F82B
:1044F000B802016B6846884707460720787005E0D8
:1045000031462046FFF747FE681CC5B206E031463B
:104510002046FFF740FE681CC5B200BF00BF05B1D2
:10452000F8BDF088C0B1BDF8000080B1F088BDF8DA
:104530000010884202DDBDF8000000E0F088009025
:10454000BDF8002039462046FFF73EFE07E0314621
:104550002046FFF720FE02E02046FFF746FE00BFA0
:10456000DEE7014600200A4602E0431CD8B2521C96
:104570001378002BF9D1704770B504460D4694F8B6
:104580009C02012804D0022803D003281AD101E09C
:1045900000BF00BFE888022804D029462046FFF764
:1045A000FAFD14E00120E060D4F8A40218B1E0683C
:1045B00040F00200E060022204F10C012046FFF707
:1045C00003FE04E029462046FFF7E5FD00BF00BFDB
:1045D00070BD2DE9F04107460D46904600240FB905
:1045E000BDE8F0813E463046FFF7BBFF022101EBFC
:1045F0004000A8F8000098F800002855601CC4B2DC
:1046000003202855601CC4B208E030782855761C79
:10461000601CC4B200202855601CC4B23078002849
:10462000F3D100BFDCE70146002031B1012906D0FB
:10463000022906D0032908D105E0002007E0032065
:1046400005E0012003E0032001E0032000BF00BFDC
:1046500070472DE9F04104460D46164614B9032073
:10466000BDE8F081D4F8B80210B10020C4F8B80257
:10467000D4F8CC0210B10020C4F8CC020DB1C4F8BB
:10468000B452012084F89C022670204600F014F9F0
:1046900007463846E4E72DE9F04104460D4600267A
:1046A00000272946D4F8C402FCF700FE064630462F
:1046B000FFF7B9FF07463846BDE8F0812DE9F04124
:1046C00004460D46002600272946D4F8C402FCF70C
:1046D000B8FD06463046FFF7A6FF07463846BDE858
:1046E000F0812DE9F04104460F469046002F54D149
:1046F00004F11405D4F89402022843D1D5E902014B
:1047000088420FD9D5E90201401AA86041462046E7
:10471000AA68FFF734FD00231A461946204600F028
:1047200045F92FE0D5E90210884217D1E968686899
:10473000884213D36868D4F8981288420ED20022B7
:1047400011462046FFF71BFD0020C4F89802002305
:104750001A461946204600F029F913E0D4F8B802A9
:10476000C06840B194F89C02032804D1D4F8B80280
:10477000C168204688478021204600F0CAF92046BB
:10478000FFF715FD94F8A00201281BD1204600F088
:1047900068FB002084F8A00214E0D4F8B802406955
:1047A00070B194F89C0203280AD1D4F8B8023946B3
:1047B000426920469047064626B13046BDE8F08162
:1047C0000320FBE70020F9E72DE9F04105460F46FD
:1047D00090465FBB05F5AA74D5F8940203283AD138
:1047E000D4E90201884210D9D4E90201401AA0603C
:1047F000D4E90201884201D2A06800E0E0680246E4
:1048000041462846FFF7AFFC25E0D5F8B80200691D
:1048100040B195F89C02032804D1D5F8B80201698B
:10482000284688472846FFF7E0FC14E0D5F8B80290
:10483000806970B195F89C0203280AD1D5F8B802B6
:104840003946826928469047064626B13046BDE87B
:10485000F0810320FBE70020F9E7014600207047C4
:1048600010B50446012084F89C02D4F8B80228B19F
:104870002179D4F8B802426820469047002010BD44
:104880002DE9F04104460D46002600272946D4F8BC
:10489000C402FCF749FD06463046FFF7C4FE074652
:1048A0003846BDE8F08170B504460D462946D4F877
:1048B000C402FCF75BFD70BD10B5044620780028EB
:1048C0002ED11848C0F80444C4F8C4024FF0A040E8
:1048D000144908600420486002211248C160002188
:1048E0000161022181610021C16101624162C162F5
:1048F00001630DA001F0ECFC0A48FDF7E6F808B1F1
:10490000FBF753FF80210748FCF741FC40220021C0
:104910000448FCF741FC802201210248FCF73CFCE2
:10492000002010BD60DD01202D2D2D20696E6974E1
:10493000202075736200000010B50246D2F8C43220
:1049400001F08000802809D101F07F00C0EBC00495
:1049500003F13C0000EB8400807810BD01F07F0083
:10496000C0EBC00403F5FE7000EB84008078F4E730
:104970000246002070470246002070472DE9F047AC
:1049800004460F4615461E464FF00008C1462B460A
:1049900032463946D4F8C402FCF7F3FC8046404660
:1049A000FFF741FE81464846BDE8F0872DE9F04714
:1049B00004460D4616461F464FF00008C1463B46CA
:1049C00032462946D4F8C402FCF721FD8046404611
:1049D000FFF729FE81464846BDE8F08710B504463A
:1049E000012084F89C020020C4F894026060C4F89E
:1049F000A402D4F8BC0228B12179D4F8B8024268E4
:104A0000204690474023002211462046FFF7B6FF7C
:104A100001214FF4B27001534021001F0151402386
:104A2000002280212046FFF7A9FF0121A184402117
:104A30002162002010BD014691F89C02042803D198
:104A400091F89D0281F89C020020704710B5044641
:104A500094F89C02032808D1D4F8B802C06920B1A8
:104A6000D4F8B802C16920468847002010BD02462C
:104A70001174002070472DE9F04104460D460026D0
:104A800000272946D4F8C402FDF74CF90646304603
:104A9000FFF7C9FD07463846BDE8F08170B504460A
:104AA0000D46294604F2AA2000F0ADF90120C4F811
:104AB00094024FF42C70005BC4F8980294F8AA0298
:104AC00000F01F0020B1012809D0022815D10DE007
:104AD00004F2AA21204600F095FA064616E004F2F8
:104AE000AA21204600F0F6FB06460FE004F2AA21B8
:104AF000204600F0DAFA064608E094F8AA0200F030
:104B00008001204600F005F8064600BF00BF304691
:104B100070BD2DE9F04104460D46002600272946C8
:104B2000D4F8C402FCF79FFC06463046FFF77BFD35
:104B300007463846BDE8F08170B5044600250026DA
:104B4000D4F8C402FDF712F905462846FFF76BFDBD
:104B50000646304670BD014691F89C0281F89D02E0
:104B6000042081F89C02002070472DE9F04704469C
:104B70000D4616461F464FF00008C1463B463246DA
:104B80002946D4F8C402FCF7B3FC80464046FFF740
:104B90004AFD81464846BDE8F08770B504460D469B
:104BA00029462046FDF78AFF002070BD70B50446F7
:104BB0000D4629462046FDF7A6FF002070BD70B5C2
:104BC00004460D4601212046FFF778FD0021A4F898
:104BD000781181212046FFF771FD002121872046B1
:104BE000FDF7B1FFD4F8BC0230B1D4F8BC0203F039
:104BF000F3FB0020C4F8BC02002070BD01460A206F
:104C000008800148704700008001002001462020F4
:104C10000880014870470000400100200146202024
:104C20000880014870470000200100200146202034
:104C300008800148704700006001002070B50446FC
:104C40000E464FF41D7003F0B1FD054625B9002056
:104C5000C4F8BC02022070BDC4F8BC52207C90B9DC
:104C60004FF40073022201212046FFF787FE012145
:104C7000A4F878114B02022281212046FFF77EFE24
:104C80000121218710E04023022201212046FFF765
:104C900075FE0121A4F878114023022281212046CB
:104CA000FFF76CFE012121872046FDF751FF002010
:104CB000D1E7024609B903207047C2F8C0120020AC
:104CC000FAE7F8B505460C46D5F8BC620027002087
:104CD0000090207800F0600000283DD0202871D19D
:104CE0006078FE2802D0FF282ED11AE0608890B9A3
:104CF000E08801280FD1207800F0800080280AD1B8
:104D0000D5F8C012886980473060012231462846B4
:104D1000FFF75AFA04E021462846FFF73CFA03273A
:104D200018E0608850B9E08840B9207800F0800031
:104D3000802803D02846FDF72DFF04E021462846B1
:104D4000FFF729FA032705E021462846FFF723FA53
:104D5000032700BF00BF53E0607830B1012832D094
:104D60000A2812D00B283DD11FE095F89C02032899
:104D700005D1022269462846FFF726FA04E02146BB
:104D80002846FFF708FA032732E095F89C0203282B
:104D900005D10122311D2846FFF716FA04E021460D
:104DA0002846FFF7F8F9032722E095F89C0203282C
:104DB00002D1A078706004E021462846FFF7EBF9A5
:104DC000032715E016E095F89C02032809D16088B6
:104DD00038B921792846FFF753FD21792846FDF798
:104DE0004DFE05E021462846FFF7D5F9032700BF11
:104DF00000BF05E021462846FFF7CDF9032700BF95
:104E000000BF3846F8BD70B505460E4634462078DA
:104E10002870641C20786870641C2046FFF7EDF849
:104E20006880641C641C2046FFF7E7F8A880641CB7
:104E3000641C2046FFF7E1F8E88070BD38B50446F1
:104E40000D46002000900DB9032038BDC4F8B852BB
:104E5000D4F8B802816A68468847C4F8CC020020BA
:104E6000F3E701460020704770B504460D46A88858
:104E700010BBE88800BB688880281DD2A87800F0A5
:104E80007F0694F89C02032804D129462046FFF7A8
:104E900082F915E084F89E6231462046FFF7EBFD6B
:104EA0002046FFF7A2F91EB1022084F89C0207E019
:104EB000012084F89C0203E029462046FFF76BF9A5
:104EC00070BD70B504460D460326D4F8B80230B163
:104ED000D4F8B80229460268204690470646304674
:104EE00070BD000070B504460E460025B0783B4901
:104EF000087008460078012805D931462046FFF79A
:104F00004AF9032070BD94F89C02022802D00328BD
:104F100056D11CE031480078A8B130480078606074
:104F20002E4801782046FFF7CCFF054625B13146D3
:104F30002046FFF730F909E02046FFF756F9032035
:104F400084F89C0202E02046FFF74FF943E0234833
:104F5000007870B9022084F89C02204800786060D4
:104F60001E4801782046FFF7D1F82046FFF73DF9AB
:104F700025E01A490978606888421DD021792046C9
:104F8000FFF7C4F81548007860601448017820469F
:104F9000FFF797FF05465DB131462046FFF7FBF866
:104FA00021792046FFF7B2F8022084F89C0206E03F
:104FB0002046FFF71AF902E02046FFF716F90AE04B
:104FC00031462046FFF7E7F8044801782046FFF70E
:104FD0009DF8032500BF00BF284693E7E4000020AA
:104FE00070B505460C466088012804D1C5F8A402B6
:104FF0002846FFF7FAF870BD10B504462046FFF7C3
:105000009BFD10BD70B505460C460026207800F0CB
:10501000600068B1202802D040283ED100E000BFE7
:10502000D5F8B8022146826828469047064639E0FE
:1050300060780A282AD2DFE800F01A24291F290AFA
:105040000529150F21462846FFF78DF923E0214653
:105050002846FFF709FF1EE021462846FFF742FFDA
:10506000064618E021462846FFF752F913E021468C
:105070002846FFF781FA0EE021462846FFF7B0FFE9
:1050800009E021462846FFF74FF804E0214628466C
:10509000FFF781F800BF00BF04E021462846FFF774
:1050A0007AF800BF00BF304670BD2DE9F0410546DB
:1050B0000E464FF000083479307800F0600068B197
:1050C000202802D0402870D100E000BFD5F8B802F7
:1050D00031468268284690478046F7E0707800287D
:1050E00064D001282FD003286FD195F89C020228A4
:1050F00002D0032820D110E054B1802C08D02146E2
:105100002846FFF706FD80212846FFF702FD03E051
:1051100031462846FFF73FF813E0708840B93CB1AC
:10512000802C05D0F08818B921462846FFF7F1FCFD
:105130002846FFF75AF804E031462846FFF72BF8D7
:1051400000BF00BFBBE095F89C02022802D00328F4
:1051500024D110E054B1802C08D021462846FFF716
:10516000D8FC80212846FFF7D4FC03E031462846CE
:10517000FFF711F817E0708878B904F07F0018B1D4
:1051800021462846FFF787FA2846FFF72EF8D5F87C
:10519000B802314682682846904704E031462846E6
:1051A000FEF7F9FF00BF00BF89E08AE095F89C0296
:1051B000022802D0032876D126E03CB1802C05D00D
:1051C00031462846FEF7E7FF72E073E004F0800006
:1051D000802808D104F07F0000EB800105F1140065
:1051E00000EB810007E004F07F0000EB800105F593
:1051F000AA7000EB81000746002038600222394681
:105200002846FEF7E1FF53E004F0800080280ED12D
:1052100004F00F0000EB800105F1140000EB8100A9
:10522000008A98B931462846FEF7B5FF40E004F001
:105230000F0000EB800105F5AA7000EB8100008AE9
:1052400020B931462846FEF7A6FF31E004F0800081
:10525000802808D104F07F0000EB800105F11400E4
:1052600000EB810007E004F07F0000EB800105F512
:10527000AA7000EB810007460CB1802C02D10020FF
:10528000386009E021462846FFF756FB10B101209F
:10529000386001E000203860022239462846FEF7D7
:1052A00093FF05E0FFE731462846FEF774FF00BF95
:1052B00000BF04E031462846FEF76DFF00BF00BF87
:1052C00004E031462846FEF766FF00BF00BF4046B7
:1052D000BDE8F08170B505460C460026207800F048
:1052E000600030B1202802D040282AD100E000BF61
:1052F00000BF95F89C02012804D0022803D003289F
:1053000018D101E000BF00BF207901280DD8D5F8E1
:10531000B80221468268284690470646E08840B990
:105320003EB92846FEF761FF03E021462846FEF716
:1053300032FF04E021462846FEF72DFF00BF00BFE4
:1053400004E021462846FEF726FF00BF00BF304696
:1053500070BD000070B504460B4622461978587897
:1053600001282CD140F61C0080581D7805F00F064E
:105370000125B540ADB2284340F61C05A85002F502
:10538000106000EB4110006800F40040F0BB188989
:10539000C0F30A00DD7840EA854040EA815040F0E1
:1053A000805040F4004002F5106505EB41152D6872
:1053B000284302F5106505EB411528602DE040F605
:1053C0001C0080581D7805F00F060125B540144ECD
:1053D00006EA0545284340F61C05A85002F5306052
:1053E00000EB4110006800F4004078B91889C0F360
:1053F0000A00DD7840EA854040F0805040F40040EB
:1054000002F5306505EB41152D6800E005E0284305
:1054100002F5306505EB41152860002070BD0000E5
:105420000000FFFF01460A464FF410608058C30A8F
:10543000DB024FF41060835040F60400805840F4C3
:10544000807340F604008350002070470FB470B59D
:1054500004460A98012817D1A06B20F48030A0637D
:10546000E0681A490840E060E06820F44010E0601D
:105470001198012803D1E06840F48010E0602046D4
:1054800000F026F8054612E0E06840F04000E060D9
:10549000204600F01DF805460E9820B9A06B40F498
:1054A0008030A06303E0A06B20F48030A0630898F4
:1054B000012807D1A06840F00600A060A06840F075
:1054C0002000A060284670BC5DF814FBBFFFBDFF44
:1054D0000146002200BF501C02460F4B984201D9E2
:1054E00003207047086900F000400028F3D0002234
:1054F000086940F00100086100BF501C0246064BDD
:10550000984201D90320ECE7086900F00100002867
:10551000F3D100BFE5E70000400D030070B504467D
:105520000B46224619785878012848D102F51060B8
:1055300000EB4110006800F00040B0F1004F17D1BF
:1055400002F5106000EB4110006840F0006502F5C4
:10555000106000EB4110056002F5106000EB411097
:10556000006840F0804502F5106000EB41100560D6
:1055700040F63C0080581D7805F00F060125B54027
:10558000ADB2A84340F63C05A85040F61C00805838
:105590001D7805F00F060125B540ADB2A84340F6D1
:1055A0001C05A85002F5106000EB411000682B4D5F
:1055B000284002F5106505EB411528604BE002F527
:1055C000306000EB4110006800F00040B0F1004F87
:1055D00017D102F5306000EB4110006840F0006523
:1055E00002F5306000EB4110056002F5306000EB21
:1055F0004110006840F0804502F5306000EB41103A
:10560000056040F63C0080581D7805F00F06012526
:10561000B540134E06EA0545A84340F63C05A850A0
:1056200040F61C008558187800F00F060120B040A5
:105630000B4E06EA0040854340F61C00855002F5FB
:10564000306000EB41100068064D284002F53065DF
:1056500005EB41152860002070BD0000007833EC98
:105660000000FFFF0078F3EF01460A46D2F8000E73
:1056700020F00300C2F8000E40F60400805820F02D
:10568000020340F6040083500020704701460A469A
:10569000D2F8000E20F00300C2F8000E40F604001D
:1056A000805840F0020340F6040083500020704709
:1056B0000FB4F0B5054600272E46002405E0002172
:1056C00005F5827040F82410641C0F2CF7D3109855
:1056D000A0B940F60400805940F0020140F60400F1
:1056E0008151A86B40F40010A863A86B20F400203F
:1056F000A863A86B20F48020A86307E0A86B20F4BF
:105700000010A863A86B40F40020A8630020C6F82E
:10571000000ED6F80008C6F800080B9801280BD137
:10572000089820B90021284600F0E2FC08E0012199
:10573000284600F0DDFC03E00321284600F0D8FCF9
:105740001021284600F024FC00B10127284600F073
:1057500009FC00B1012700214FF401608151001DB7
:10576000815140F61C00815100242EE006F51060A6
:1057700000EB4410006800F00040B0F1004F10D181
:105780003CB94FF0006106F5106000EB4410016079
:105790000DE04FF0904106F5106000EB4410016001
:1057A00005E0002106F5106000EB441001600021C7
:1057B00006F5106000EB441001614FF67F3106F5ED
:1057C000106000EB44108160641C0698A042CDD8A4
:1057D00000242EE006F5306000EB4410006800F075
:1057E0000040B0F1004F10D13CB94FF0006106F518
:1057F000306000EB441001600DE04FF0904106F581
:10580000306000EB4410016005E0002106F53060D7
:1058100000EB44100160002106F5306000EB4410FD
:1058200001614FF67F3106F5306000EB4410816076
:10583000641C0698A042CDD84FF40160805920F432
:1058400080714FF4016081510020A8616FF08040A9
:105850006861099818B9A86940F01000A861A869A2
:1058600009490843A8610C9818B1A86940F00800DC
:10587000A8611098012803D1A86904490843A861C8
:105880003846F0BC5DF814FB00383C800400004052
:105890000146886820F00100886000207047000001
:1058A000F0B505460B4614462A4619785878012863
:1058B00075D1586920BB02F5106000EB41100069FA
:1058C0006C4E304002F5106606EB4116306102F571
:1058D000106000EB4110006940F4002602F51060F2
:1058E00000EB4110066102F5106000EB4110006909
:1058F000C60CF60402F5106000EB4110066137E0BB
:1059000002F5106000EB41100069C60CF60402F5C8
:10591000106000EB4110066102F5106000EB4110D1
:105920000069544E304002F5106606EB41163061B6
:105930009E685869B04201D99868586102F51060B4
:1059400000EB4110006940F4002602F5106000EB06
:105950004110066102F5106000EB411000695E69BC
:10596000C6F31206304302F5106606EB41163061AD
:10597000012C15D1186928B102F5106000EB411017
:105980001E69466102F5106000EB4110006840F0AE
:10599000044602F5106000EB4110066068E01BE071
:1059A00002F5106000EB4110006840F0044602F57B
:1059B000106000EB411006605869002858D040F68E
:1059C000340080581E7806F00F070126BE40304391
:1059D00040F63406B0504BE002F5306000EB411069
:1059E0000069C60CF60402F5306000EB4110066158
:1059F00002F5306000EB411000691E4E304002F5A8
:105A0000306606EB41163061586908B198685861F4
:105A100002F5306000EB4110006940F4002602F509
:105A2000306000EB4110066102F5306000EB411080
:105A300000699E68C6F31206304302F5306606EB35
:105A400041163061012C07D1D86828B102F53060C9
:105A500000EB4110DE68466102F5306000EB41105A
:105A6000006840F0044602F5306000EB411006602B
:105A70000020F0BDFFFF07E070B503460C46194655
:105A80001D6C1848854209D94FF43060405800F029
:105A90000040B0F1004F01D1002070BD0026C1F8D8
:105AA000106BD1F8100B40F40026C1F8106BD1F840
:105AB000100B40F01806C1F8106BD1F8100B40F035
:105AC000C046C1F8106B012C09D1C1F8142B4FF45A
:105AD0003060405840F080264FF43060465000203F
